:020000041000EA
:10000000002008205D0100101B0100101D010010E0
:100010001101001011010010110100101101001058
:100020001901001019010010190100101F01001022
:10003000110100101901001021010010230100100E
:100040001101001011010010110100101101001028
:100050001101001011010010110100101101001018
:100060001101001011010010110100101101001008
:1000700011010010110100101101001011010010F8
:1000800011010010110100101101001011010010E8
:1000900011010010110100101101001011010010D8
:1000A00011010010110100101101001011010010C8
:1000B00011010010110100101101001011010010B8
:1000C00011010010110100101101001011010010A8
:1000D0001101001011010010110100101101001098
:1000E0001101001011010010110100101101001088
:1000F0001101001011010010110100101101001078
:100100001101001011010010110100101101001067
:10011000EFF30580103800BE00BE00BE00BE00BE7A
:1001200000BE00BEF2EB887140A9041060A9041063
:10013000A001001090A31AE7D3DEFFFF42012110B7
:10014000FF01000080AF0400793512AB4FF00000D2
:100150001E49086006C881F3088810474FF05040D8
:10016000006810B14FF00000F2E70DA40ECC00299A
:1001700002D000F012F8F9E71549164A002000E015
:1001800001C19142FCD11449884714498847144958
:10019000884700BEFDE701C901C29A42FBD3704700
:1001A00060A904102001002078080020B8B00410D5
:1001B0000000082000000820B8B00410001008203B
:1001C00000100820000000007047000008ED00E06B
:1001D000780800205CC40020F533001035020010C0
:1001E000ED330010F8B500BF064B0749C91A891056
:1001F00048BF0131491003D0044B0BB101481847E7
:10020000704700BF78080020780800200000000038
:1002100008B5054B1BB105490548AFF30080BDE8A3
:100220000840FFF7E1BF00BF00000000DCB3002082
:10023000E017011000B583B003F0F0F90CF00AFDEF
:1002400060BB0CF0B7FC184803F02CFA47F23053AF
:10025000164A174917480CF0B9FCC0B9164803F004
:1002600021FA1649164891F8DBC891F8DA3891F866
:10027000D92891F8D818CDF800C003F093FA1148A6
:1002800003F010FA4FF47A7001F08AF8F7E70E489D
:1002900003F008FA012003B05DF804FB0B4803F0FB
:1002A00001FA4FF0FF30F6E7F417011004004000A8
:1002B0000C1801102018011044180110CC0B00205C
:1002C000501801106818011030180110E0170110C3
:1002D00010B44FF480740C4B53F8202003EB8003D0
:1002E000C00082F0400200F1804003F5805C02F023
:1002F000C00200F5203003F54053CCF800204160E7
:100300001C605DF8044B70470480034010B4084C37
:10031000C90041EA820154F8202004EB80035140D7
:1003200003F5805301F00C015DF8044B1960704730
:1003300004800340064B022203EB800319B103F54E
:1003400000531A60704703F540531A60704700BFAE
:10035000048003404FF050431B6893B10C4B4FEAAD
:10036000D00C00F00700800081400A4803EB8C03AA
:100370000CF18C0C40F82C102AB103F500531960D5
:100380007047054BEBE703F540531960704700BF1A
:100390009082024000800240488202402DE9F041F4
:1003A0004FF050480D4FD8F80030164657F823202C
:1003B000044602420D4609D114432946324647F805
:1003C00023401520BDE8F04100F09AB901F018FA79
:1003D000D8F8003057F82320EEE700BFD0C3002044
:1003E00010B50446152000F07FFA4FF05043044A40
:1003F000196852F8213023EA040342F8213010BD75
:10040000D0C3002030B44FF0000343EC440043EC71
:10041000400005254FF480740B4BC20053F82010A8
:1004200003EB800081F0400102F1804303F52033AB
:1004300001F0C00200F5805100F540500A605D6097
:10044000046030BC704700BF048003400FB400B5A7
:1004500083B0049C074803F025F93CB105A9204668
:10046000019102F0A9FF044803F01CF9012002F0F9
:10047000BBFF00BF7818011088180110EFF310803F
:1004800072B6064BD3E8CF1F01220029FAD1C3E888
:10049000412F0029F6D1BFF35F8F70474B0A002030
:1004A0000023034AC2E88F3F80F31088704700BFE3
:1004B0004B0A002070B58646EFF3108572B6124CD9
:1004C000D4E8CF6F0120002EFAD1C4E8460F002EE9
:1004D000F6D1BFF35F8F4FF0010CC80801F007039E
:1004E0000CFA03F31EF800C01CEA030608D14CEA1C
:1004F000030C0EF800C0C4E88F6F85F3108870BD40
:100500001046FFF7A3FF00BF4B0A0020F8B5EFF33A
:10051000108772B61C4ED6E8CF5F0124002DFAD1A9
:10052000C6E8454F002DF6D1BFF35F8F9A421BD826
:10053000012502E00132934222D3D40810F804E0EE
:1005400002F0070C05FA0CFC1EEA0C0FF2D14EEA81
:100550000C0E00F804E010460023C6E88F3F87F336
:100560001088984207DBF8BD0023C6E88F3F87F369
:1005700010884FF0FF300029F5D00698FFF766FF8E
:100580004FF0FF30E8E700BF4B0A002000B5EFF363
:10059000108E72B6104BD3E8CFCF0122BCF1000F02
:1005A000F9D1C3E84C2FBCF1000FF4D1BFF35F8F3A
:1005B00001224FEAD10C01F0070102FA01F110F813
:1005C0000C2022EA010200F80C200022C3E88F2F41
:1005D0008EF310885DF804FB4B0A0020044A107863
:1005E000431CDBB2182B28BF10231370704700BFC9
:1005F000A80700204FF0E022936843F00053936077
:10060000704700BF0021044B03F12002C3E88F1F95
:1006100001339342FAD17047400A00204FF0E023A3
:100620004FF08032C3F80024C3F80424C3F8082430
:10063000C3F80C24C3F81024C3F81424C3F81824F6
:10064000C3F81C24C3F82024C3F82424C3F82824A6
:10065000C3F82C24C3F8302462B67047012300F09D
:100660001F029340400941B1800000F1604000F555
:100670006140C0F8803103607047024A203042F880
:100680002030704700E100E001224309034900F0F7
:100690001F008240403341F82320704700E100E012
:1006A000F8B50D46EFF3108772B6124ED6E8CF2F8D
:1006B0000123002AFAD1C6E8423F002AF6D1BFF34F
:1006C0005F8F0D4B00F110049B680C4A53F82430E7
:1006D000934203D0994201D001F092F8064B9B68F7
:1006E00043F82450BFF35F8F0023C6E88F3F87F3A2
:1006F0001088F8BD490A002000ED00E0110100104B
:100700002DE9F04F81468B46164683B0EFF31083F8
:1007100072B6DFF8D0A10093DAE8CF1F01230029D9
:10072000FAD1CAE8413F0029F6D1BFF35F8F664B8B
:1007300093F90040002CC0F2A080644D04EB440704
:1007400005EB870898F8061009F110091970604B3D
:10075000BF009B6853F829006300411B2F292FD944
:100760005C49884240F0A4801C445B4B02372F4414
:10077000043BDB1BC3F34A036FEAC3434FF421413D
:100780006FEAD34325F8241005EB840463804BF60D
:100790000153A380FF2348F00100E671C4F808B0BC
:1007A000A3714B4B9B6843F82900BFF35F8F002375
:1007B000CAE88F3F009B83F3108803B0BDE8F08F39
:1007C00020F0010E9EF80710B1422ED84FF42143BD
:1007D000EB53414BB91C2944043B04375B1A2F44AB
:1007E000AEF10401C91BC1F34A043C49C3F34A03F7
:1007F0000B432143A8F804103949A8F802304AF6FF
:10080000AA2073465B1B5B415843000D88F80760C4
:1008100088F80600C8F808B048F00100CEF80010CB
:10082000BFE7D179B1422ED996469EF906C00CEBAE
:100830004C02BCF1000F05EB8202F2DA4BF60151DB
:100840000EF10402A8F10407BF1AC7F34A076FEAC2
:10085000C7476FEAD7478EF8064003EB0408204CE1
:1008600005EB8803AEF8047045F82840998083F8BA
:1008700006C0DE71C3F808B093E700F0C1FF124B69
:1008800093F9004059E7724632F8041F490514D421
:100890004915023102EB410101916FF00701C91BBB
:1008A000019F491B3944C1F34A0141F46041C9E742
:1008B000019300F0A5FF019B56E701F5FF1101F53B
:1008C000FF511F31E4E700BF4FC40020AC070020F8
:1008D00000ED00E011010010DC07002000E0FFFF48
:1008E00001488047490A00202DE9F04F83B0EFF31B
:1008F000108A72B6714ED6E8CF2F0123002AFAD1A2
:10090000C6E8423F002AF6D1BFF35F8F6C4B00F17F
:1009100010089B686B4A53F82850954245D08D4289
:100920000C4650D0684FEB1B2F2B3ED801214FEACD
:1009300050194FEA890909F1604909F5614900F048
:100940001F0301FA03F0D9F80030C9F8800000EA6B
:10095000030BBFF35F8FEFF30581C9B2002934D0D9
:10096000884505D0CDE9001000F04AFFDDE9001010
:1009700025F0010EDEF808C0644505D189E0D3F802
:1009800008C0644531D09E469EF9062002EB420322
:10099000002A07EB8303F2DA644561D0BBF1000F54
:1009A00020D0C9F88001C9F80000454B9B6843F886
:1009B0002850BFF35F8F0023C6E88F3F8AF310886B
:1009C00003B0BDE8F08F1546EFE725F0010EDEF825
:1009D00008C06445D8D19EF906407346002C08DA59
:1009E000154646E0C9F88000DFE793F90640002C81
:1009F00037DB04EB440C07EB8C0C9CF80710DCF89D
:100A00000820D9719A609CF906206100002A9A7129
:100A10003DDBBCF804E05FEA4E5E05D50EF5FF1E37
:100A20000EF5FF5E0EF11F0E6FF0070C0A194FEA6C
:100A30006E5E920002EB4E0208323A44ACEB030CBD
:100A40006244C2F34A026FEAC2426FEAD2429A801B
:100A50001E4B21441A7807EB81011C708A719DE7B7
:100A60007346D9B9FF228EF806204BF60152AEF834
:100A70000420164C4AF6AA2294F800C01946C91B55
:100A800049414A43120D83F806C0227086E7104A96
:100A9000DDE79EF906407346002CAADA0D4A0E4C9B
:100AA000D21A083AC2F30A316FEA01516FEA1151C2
:100AB00044EA5202DA80998070E700BF490A0020B8
:100AC00000ED00E011010010AC0700204FC4002031
:100AD00001BDFFFFE607002000F8FFFF4FF0FF0C0D
:100AE00020F0030303F1604303F5644300F00300C7
:100AF0001A68C0000CFA00FC22EA0C0281400A438A
:100B00001A607047F0B5EFF30585EDB2EFF3108C86
:100B100072B62649D1E8CF2F0123002AFAD1C1E8C5
:100B2000423F002AF6D1BFF35F8F214E40F0010E05
:100B3000B4684AF6AA2354F825701E4A0446A41A3B
:100B4000644163431B0D77455BB21BD092F90640AD
:100B50009C421CD092F912409C4223D092F91E4034
:100B60009C4221D092F92A409C4208BF03240FD016
:100B7000114A0024157813708571C1E88F4F8CF3EA
:100B80001088F0BDB2680D4C42F82540F0E7002413
:100B900004EB440402EB8402FF2494714BF60154ED
:100BA0009480E5E70124F3E70224F1E7490A0020F5
:100BB00000ED00E0AC0700204FC400201101001040
:100BC00001460248C1F13301FFF7E0BC58C40020E0
:100BD00010B5074C82B00146052300220094054859
:100BE000FFF794FC0028A8BFC0F1330002B010BD8D
:100BF0008C18011058C4002070B504460E461546E6
:100C0000FFF7ECFC0146204600F006F8A680E580E0
:100C1000BFF35F8F70BD00BF014B0B440360704793
:100C2000400A002070B5104C104DAC420ED2FF2689
:100C3000236863B1FFF7D2FC01462046FFF7ECFFC3
:100C4000A680BFF35F8F0834AC42F1D370BDFFF7CD
:100C5000C5FC01462046FFF7DFFF2671BFF35F8F1B
:100C60000834AC42E4D370BD70080020780800203E
:100C700010B50446FFF7B2FC01462046FFF7CCFF53
:100C8000FF23A380BFF35F8F10BD00BF0D4B1A6819
:100C9000EFF3108172B6D2E8CFCF0120BCF1000F84
:100CA000F9D1C2E84C0FBCF1000FF4D1BFF35F8F54
:100CB00000221B68C3E88F2F81F3108840BF0020FB
:100CC00000217047F0C300202DE9F04F2DED028B7D
:100CD00085B0EFF30583DBB2103B9A0818BF012201
:100CE0004FF0010103F0030B18BFAF4DAF4B08BF2E
:100CF000AF4D0BEB820253F8226001FA0BF205F5BF
:100D000041539FEDA78B01925A602FE0B3881C04DA
:100D100040F19380B379002B40F0DD80B6F90820D4
:100D2000002AC0F21E81736902EB420203EBC20388
:100D3000D3E90247B7F1FF3F08BFB4F1FF3F0ED040
:100D400005EB8B01AB6A0A69D21AE31A934205D309
:100D500001232A6A03FA0BF3134200D10C612846DF
:100D600000F008FCA042B941C0F2FB80B6F908309F
:100D7000019A002B0093EA63C8DBD6F8148003EBDA
:100D80004309284608EBC907D7E9024A00F0F2FBFD
:100D9000A04271EB0A01B9DBBAF1000FC0F2C380C7
:100DA000D7E90431834A934200F0ED807A88B6F99E
:100DB000080092B242EA0040984702460B4652EAC7
:100DC000030100F0B080002B80F2D180B4EB020E62
:100DD0006AEB030A38F93930C7E902EA002B95DBE0
:100DE000716903EB430201EBC202D2E90270BE4516
:100DF0007AEB000C4FEA430288DBB4462CF8083F3C
:100E000006E003EB430001EBC0005A00D0E902709A
:100E1000BE451A447AEB000001EBC20404DB31F951
:100E20003230A446002BECDA28F83930009BACF8BD
:100E30000030B3881C043FF56DAF3369EFF31082C7
:100E400072B6D3E8CF0F01210028FAD1C3E8401FC2
:100E50000028F6D1BFF35F8F4FF6FF74B0880023F0
:100E6000316900B2B480C1E88F3F82F310889842A4
:100E7000FFF650AF0746A946746906F1080807EB6C
:100E8000470E04EBCE03D3E90250B6F90830C4464E
:100E9000002B13DBB246009704E034F93630944659
:100EA000002B09DB03EB430604EBC602D2E9027117
:100EB000BD4270EB0101F0DA5646009FACF80070BD
:100EC00034F93E7024F83E30002FD8DAB3794D461D
:100ED000002B3FF423AF0023B371B6F9083006F1BD
:100EE0000808581C3DD01A46776903E08046591C13
:100EF0003FF416AF03EB430107EBC100B0F802C0AB
:100F00001C461CF4004F9E4637F93130EED0944217
:100F100080ED028B05D0A8F80030328927F8312007
:100F200034817246E3E738F8393033813369EFF3BF
:100F3000108272B6D3E8CF0F01210028FAD1C3E89E
:100F4000401F0028F6D1BFF35F8F7388316928F8FE
:100F50003930009B73800023C1E88F3F82F31088F3
:100F6000D4E640BF05B0BDEC028BBDE8F08F28464B
:100F7000CDE9022300F0FEFA029A039B10EB020E69
:100F800043EB010A26E708460B69029198470028BF
:100F9000C9D00299D1E9002311E700BFAFF3008067
:100FA000FFFFFFFFFFFFFFFF00800B40F4B30020B7
:100FB00000000B40C90C00102DE9F84F364C256994
:100FC0002DB1BDE8F84F0A213448FFF725BEDFF800
:100FD000E4800321404600F0BBFA0326C4F80C80ED
:100FE000FFF7FCFA4FF0504C2D4B26700344236161
:100FF000DCF800300F216370636961801D834FF05E
:101000000405A3F878504FF00505A3F890504FF071
:101010000605A3F8A8504FF007050E214FF6FF7202
:1010200008274FF00A0EA3F8C0504FF001094FF007
:101030000C0C4FF0020B4FF0090A0D204FF00B057E
:10104000A3F868111749A280A3F808E1A160A3F8EA
:1010500048B0A3F8F0A0A3F82051A3F838C1A3F832
:101060005001A3F83090A3F86060A3F8D8701A80FC
:101070000D4B3046C8F820700C49DC60FFF710FBC0
:1010800049463046FFF7EAFA094B0A211F64034834
:10109000BDE8F84FFFF7C0BDF4070020F0C3002003
:1010A000400A0020FFFF1000F4B30020C90C00101C
:1010B00000200B4000000B4000487047F407002060
:1010C000F8B59DF82050044617461E4635B900F085
:1010D00059FA874266EB010100295CDB2169EFF3D5
:1010E000108372B6D1E8CF0F01220028FAD1C1E8EF
:1010F000402F0028F6D1BFF35F8FB4F90220656955
:1011000002EB4201002A4FEAC10C206905EBC10144
:1011100039DB35F80CE0A4F802E04FF0000EC0E82F
:101120008FEF83F310884888069B0130C0F30E00D0
:10113000012838BF01200B61079B48804B61C1E942
:10114000027640EA02402369EFF3108172B6D3E8D9
:10115000CF7F0126002FFAD1C3E8476F002FF6D1C9
:10116000BFF35F8FA38825F80C30A2802369C3E802
:101170008FEF81F310880122E368217803F5015392
:101180008A405A60F8BD0022C0E88F2F83F3108890
:101190004FF0FF30F8BD2846F8BD00BF0146F0B55E
:1011A0000069EFF3108772B6D0E8CF5F0124002DFD
:1011B000FAD1C0E8454F002DF6D1BFF35F8FB1F9EA
:1011C00002E04C690EEB4E0CBEF1000F4FEACC056D
:1011D000086904EBCC0C3CDB665B4E800026C0E863
:1011E0008F6F87F31088BCF80200CCE9022301302E
:1011F000C0F30E00012838BF0120059BACF80200A7
:10120000CCF81030069B40EA0E40CCF814300B6945
:10121000EFF3108272B6D3E8CFCF0127BCF1000FF5
:10122000F9D1C3E84C7FBCF1000FF4D1BFF35F8F5D
:101230008B886353A1F804E00B69C3E88F6F82F3D6
:1012400010880122CB68097803F501538A405A605F
:10125000F0BD0023C0E88F3F87F310884FF0FF30C8
:10126000F0BD00BF03464089B0EB214F37DD586920
:101270000A1402EB420210B500EBC2001C69EFF346
:10128000108C72B6D4E8CFEF0122BEF1000FF9D175
:10129000C4E84E2FBEF1000FF4D1BFF35F8F428838
:1012A00089B292B28A4207D000221B69C3E88F2F0D
:1012B0008CF31088002010BD42F4004242800121CE
:1012C000002218699971C0E88F2F8CF310881C7860
:1012D000DA68084602F50153A140596010BD0020AC
:1012E000704700BF2DE9F041851F41F1FF37A8424B
:1012F00071EB070338BF002582B038BF2F46044684
:101300000E4600F03FF9281A67EB010C01287CF12A
:10131000000C06DA2046314602B0BDE8F04100F08C
:101320003BB900F02FF9854267EB010100290ADB88
:101330000021174B2A46009316483B460191FFF7C0
:101340002DFF0130E6D04FF0000C134A1349536AC9
:101350009F4204D8906AA842DCD29F42DAD10B683F
:10136000EFF3108072B6D3E8CF8F5FF0010EB8F1C3
:10137000000FF8D1C3E848EFB8F1000FF3D1BFF385
:101380005F8F0B68C3E88FCF80F3108820BFDEE744
:101390008D0C0010F407002000000B40F0C300206B
:1013A0002DE9F04182B0064600F0ECF84FF47A7374
:1013B00004464FF0FF306FF00042E6FB0341A042CD
:1013C00072EB01033ABF044615460D46A61F45F1D0
:1013D000FF37B44275EB07033CBF0026374600F0E9
:1013E000D1F8301A67EB0101012871F1000106DA2A
:1013F0002046294602B0BDE8F04100F0CDB800F02B
:10140000C1F8864267EB010100290ADB0021174B76
:101410003246009316483B460191FFF7BFFE01306C
:10142000E6D04FF0000C134A1349536A9F4204D888
:10143000906AB042DCD29F42DAD10B68EFF31080A1
:1014400072B6D3E8CF8F5FF0010EB8F1000FF8D17C
:10145000C3E848EFB8F1000FF3D1BFF35F8F0B681B
:10146000C3E88FCF80F3108820BFDEE78D0C00101B
:10147000F407002000000B40F0C300202DE9F043EA
:1014800006460D4683B0EFF30584E4B23CB12D4B24
:101490005A6AAA421CD2002003B0BDE8F0832A4F4A
:1014A000D7F80C9097F80080484600F063F808F1F0
:1014B000040859F828301B1A301A65EB01019842CC
:1014C00071F1000110DB20BF1E4B5A6AAA42E2D321
:1014D00014BF012400249B6AB34234BF204644F069
:1014E000010003B0BDE8F08300F04CF8864265EBE4
:1014F0000101002914DB154B3846CDE90034324692
:101500002B46FFF74BFE011E0ADD0E4B5A6AAA421C
:1015100016D39B6AB34211D30B48FFF7A3FEB6E77D
:10152000084B5C6AAC42B6D3641B18BF01249B6AAB
:10153000B34234BF204644F00100ADE7AA42EBD1EC
:1015400020BFE9E700000B40F40700208D0C0010DD
:1015500010B4054B054C064AA04214BF1846581C4F
:101560005DF8044BFEF7A6BF8C0B002000800B40FB
:10157000A81801100346416A0A46986A596A8A42C5
:10158000FAD17047034B596A0A46986A596A9142E0
:10159000FAD1704700000B40074A536A9942FCD8C1
:1015A000994207D1044B02E05A6A914202D19A6AE9
:1015B0009042F9D8704700BF00000B4000EB400C90
:1015C0004FEA8C0C0CF1804C0CF5803CF0B51646C3
:1015D000DCF80420051FB2F5803F38BF4FF480329D
:1015E000EDB238BFCCF80420012D2AD94FF40067A2
:1015F000254C0CF54052176054F82020B2B9DCF8A5
:101600000020012D82EA461202F0E0020CF580561D
:1016100032602AD94FF4006144F820304FF480330F
:101620000CF500521160CCF80430F0BD6769B7FBCF
:10163000F2FE0EF1010E0EEB4E0EBEF1030EFCD2C9
:10164000DDE70129D2D103240CF540521460DCF807
:101650000820D207FBD5DCF800200B4C82EA4612AA
:1016600002F0E0020CF5805632600122DCF80050F6
:101670004D4005F00305356002FA01F1DCF8082061
:101680000A42FBD0C6E700BF940B0020014B53F881
:1016900020007047940B002070B4039D04682D0354
:1016A00045EA03451B4B002CB3FBF1F3B2FBF3F609
:1016B0001FDB194A194B904214BF4FF480424FF47C
:1016C0000042174C1A6003F580531A60A36832EA8F
:1016D0000303FBD1212200F54053043301608660EF
:1016E0001A600268002AFCDA0822C5601A6070BC21
:1016F0007047036803F03F038B42DAD18368C3F37A
:101700000B03B342D5D1C36803F4EE23AB42D0D16F
:10171000EDE700BF001BB70000800540002002403D
:1017200000000240012300EB4000800000F18040F7
:1017300000F5841041600360704700BF0023DB8A1E
:10174000002242E800F2520201D41021184704217D
:10175000184700BF002310B5DA8A044686B000237C
:1017600043E800F35B0254BF1021042145F24730E7
:10177000904710220346052101A89847052802D06A
:10178000002006B010BD0DF1080CBCE80F00206071
:1017900001206160A260E36006B010BD034AD2F888
:1017A0002838002BFBD0BFF35F8F704700000E403E
:1017B0000021044B044ABFF35F8F43F8041B93429C
:1017C000F9D170470C080E402C080E4010B44FF4AD
:1017D0008D704FF42A64064A064B07491460D060A6
:1017E00019605368002BFCDA5DF8044B704700BFAA
:1017F0000080044000A0044000B0FA00704700BF21
:1018000008B50148FEF722FECC18011038B5054C8A
:10181000054DAC4204D254F8043B9847AC42FAD38D
:1018200038BD00BF98170110D817011010B4074831
:10183000074C084B084A094904601A608B6832EA71
:101840000303FBD15DF8044B704700BF002002404A
:101850007F3BEFEF00300240F6FFF3030000024051
:10186000044BDB6CB3F5004F03D14FF48022024BE5
:10187000DA64704700001150002011504FF0E02250
:10188000044BD2F8881D0B43C2F8883D10EE30049B
:10189000704700BF030330006FF06041044B054AFE
:1018A00019609368DB4333F06043FAD1704700BF9F
:1018B000003002400000024010B545F25320FFF70F
:1018C0003DFFBDE8104003460420184710B545F21F
:1018D0005320FFF733FFBDE81040034601201847AF
:1018E000FEF790BE1449154B70B55C1AA610442E35
:1018F000324628BF4422124D920028460FF084FE43
:10190000B4F5867F13D80F4AC6F1440012D02B19C4
:10191000410803EBC101C3E9002208338B42FAD12D
:10192000C30704D520F00100304445F82020064BC1
:101930009D6070BD4320F8E700000010100100100A
:10194000000000201101001000ED00E0002370B540
:101950002B4C82B0C4F88430FFF738FF0122294BAA
:10196000DA63636C012BFCD10321264A244B1163FB
:101970009C6B012CFCD10226052521460523224A19
:1019800022480096FFF788FE21462B46204A214830
:101990000095FFF781FE0022042031461E4BFFF721
:1019A0000DFE2146284600221C4BFFF707FE0022B1
:1019B000082011461A4BFFF701FE002209201146AC
:1019C000174BFFF7FBFD002206201146134BFFF7D4
:1019D000F5FD0022114B07201146FFF7EFFD042013
:1019E000FFF754FE00240F4BA3FB0035AD0CE0B213
:1019F00029460134FFF796FE062CF8D102B070BDDF
:101A00000000014000300140002F685900000540EF
:101A1000008C864700800540001BB70080D1F0088D
:101A2000006CDC0283DE1B4386B003B451FC080467
:101A3000CDE9020151FC0904CDE9040151EC0A048D
:101A4000CDE9060103BCF047BDE800504EEC00C4F0
:101A5000BDE800504EEC01C4BDE800504EEC02C49D
:101A600000BD000000B5FFF7DFFF02E010FE30F41C
:101A7000F8D441EC100443EC112400EE010410EE04
:101A8000010480EE200451EC1004704700B5FFF70C
:101A9000CBFF02E010FE30F4F8D441EC100443EC2C
:101AA000112400EE010410EE210480EE200451EC1C
:101AB0003004704700B5FFF7B7FF02E010FE30F4C6
:101AC000F8D410B541EC100443EC112451EC04049B
:101AD00053EC0524A0FB024C5FF0000EE0FB03CEAC
:101AE000E1FB02CE4CEC20440024E1FB03E444EC97
:101AF00030E480EE200451EC5004BDE81040704703
:101B000000B5FFF791FF02E010FE30F4F8D441EC8D
:101B1000100443EC112451EC2104A0FB01126FEAE4
:101B2000820252FB100052FB12F252FB1000A0EB9B
:101B3000D07C53EC04245CFB13F153EC1524A1FB83
:101B4000022001FB030053EC4424A2EB000050FBF5
:101B50001CF24FEA111312EB017043EBE27140EA01
:101B6000515020EA915020F0070053EC7524A0FB5F
:101B7000023C53EC752400FB03CC01FB02CC53EC7C
:101B80000424ACEB824C40EA5C70A0F1010041EC13
:101B9000400480EE200451EC7004704700B5FFF75C
:101BA00043FF02E010FE30F4F8D440EC700400EE85
:101BB000010410EE210480EE200451EC3004704743
:101BC00000B5FFF731FF02E010FE30F4F8D440EC2E
:101BD000600400EE010410EE210480EE200451ECBC
:101BE0003004704700B5FFF71FFF02E010FE30F42D
:101BF000F8D441EC800400EE010410EE010480EE04
:101C0000400410EE1304704700B5FFF70DFF02E02B
:101C100010FE30F4F8D441EC800400EE010410EE24
:101C2000010480EE400410EE3304704700B5FFF766
:101C3000FBFE02E010FE30F4F8D441EC100443EC5B
:101C4000112400EE010410EE3004C0F30070704760
:101C500000B5FFF7E9FE02E010FE30F4F8D443ECE3
:101C6000102441EC110400EE010410EE30F48CBF9E
:101C700001200020704700BF00B5FFF7D5FE02E04D
:101C800010FE30F4F8D443EC102441EC110400EEC3
:101C9000010410EE30F42CBF01200020704700BF7B
:101CA00000B5FFF7C1FE02E010FE30F4F8D441ECBD
:101CB000100443EC112400EE010410EE30F42CBFAC
:101CC00001200020704700BF00B5FFF7ADFE02E025
:101CD00010FE30F4F8D441EC100443EC112400EE73
:101CE000010410EE30F48CBF01200020704700BFCB
:101CF000704700BF2DE9F04F83B09946DDE90DAB89
:101D00000F9B884611469A07074616D1DA453AD204
:101D10000C460D46ABEB0A060E4422464B464146A6
:101D200020200134B847B442F7D12946BAF1000F58
:101D300008D1204603B0BDE8F08F0C46BAF1000F81
:101D400010D00E4655460C9B2E449A440191721BAE
:101D50004B46013D41461AF8010D3446B847002D67
:101D6000F5D101990F9B9B07E3D5651AAB45E0D9E7
:101D700022464B46414620200135B8475D4504F1D7
:101D80000104F5D3D5E70C46BAF1000FD9D1D0E75D
:101D90002DE9F04F0F9FDDF8248017F0020F0A9C09
:101DA0009DF82CA00E9DDDE90C9644D1F5BBB44204
:101DB00041D207F0010B04F1FF3C4FF0300EC44458
:101DC00004E00134A6420CF801EF01D9202CF8D12F
:101DD000BBF1000F00F08880A5422CD904F1FF3C34
:101DE0004FF0300EC44404E00134AC420CF801EF73
:101DF00021D0202CF8D117F0100F0ED017F4806FDF
:101E000054D1A64263D0A54261D0B9F1100F50D091
:101E1000B9F1020F56D0202C29D12024CDE90B573F
:101E2000CDE90984BDE8F04FFFF764BF17F0010B5F
:101E300034D1B442BFD317F0100F1ED017F4806F07
:101E4000E3D1002CDDD1B9F1100F63D0B9F1020F4D
:101E500077D0302488F800400124BAF1000F11D166
:101E60007E0748D52B2608F804600134D6E72646BD
:101E700001344FF0300C08F806C0202CCDD0BAF158
:101E8000000FEDD02D2608F804600134CDE90B5782
:101E9000CDE90984BDE8F04FFFF72CBFBAF1000F80
:101EA00030D0B44205F1FF3585D395E7B9F1100F75
:101EB000B3D1BE063BD5202CAFD0582608F804601D
:101EC0000134A8E7202CA8D02646013407E0661E7E
:101ED000B9D0B9F1100F36D0B9F1020FC9D14FF016
:101EE000620C08F806C096E717F0100FC5D017F47B
:101EF000806F86D089E73E0790D5202608F80460D9
:101F000001348BE717F00C0F00D0013DB442FFF411
:101F100052AF61E7BC0612D4782488F80040302420
:101F200088F801400224BAF1000F99D0AAE7202CCA
:101F30003FF473AF782608F8046001346BE7582447
:101F4000EBE76224E9E717F0200FA4F1020C04D0BC
:101F50004FF0580E08F80CE08BE74FF0780E08F8B9
:101F60000CE086E700B9704701F05ABB10B1D1E927
:101F700000311847704700BF2DE9F04F97B09DED35
:101F8000207BDDE9225B0746884651EC170B249C39
:101F900099460C920B4602468DED047B0794FFF7A1
:101FA00049FE002840F0F481DDE904014FF0FF32E2
:101FB0006FF48013FFF750FE002840F01B81DDE92D
:101FC00004014FF0FF32AC4BFFF782FE002840F0D7
:101FD000EE80DDE90401A4A3D3E90023FFF778FE36
:101FE000002840F0D380DDE90401A1A3D3E9002358
:101FF000FFF732FE002840F0C980DDE9040100222D
:102000000023FFF729FE002840F0E88023460D90CA
:1020100013F4806F08BF062530212B460EAAA5F1C8
:10202000200605E0013BB34202F8011B00F093815A
:10203000092BF7D81E46ED1ADDE90401FFF7D6FD9E
:102040008E4B044603EBC60393ED007B8DED087BBE
:10205000FFF7A8FD02460B46DDE90401FFF71AFD74
:10206000DDE90823FFF72AFD02460B46CDE90A23E6
:10207000FFF7CEFD8246FFF7A7FD02460B46DDE9DE
:102080000A01FFF707FD02460B46CDE90A230022AD
:102090007B4BFFF71DFE002800F0FE800AF1010ACD
:1020A0005046FFF791FD02460B46DDE90801FFF7B8
:1020B000E7FD10B14FF0000A0134002E00F0FD8062
:1020C000681E0EABDFF8CCC118440FE0ACFB0A2150
:1020D000C90801EB8102AAEB42023032BAF1090FC2
:1020E00000F8012F40F21C818A461D46202D05F183
:1020F000010306F1FF36E9D12025691E0EAB6148C8
:10210000194410E080FB0462C3EBA20303EB8302DB
:10211000A4EB420404F1300201351C4601F8012F02
:10212000002B00F0EB80202D4FEAE473EAD1079BEF
:1021300003F00303012B18D1BBF1000F15D00D9B49
:10214000002B00F00A810BF1FF3BBBF1200F0CD9F3
:102150006B1E0EA930220B4405E001355D4503F8E6
:10216000012F80F0D180202DF7D1079B0EACCDE957
:1021700002B341464B4638460C9A01950094FFF74E
:10218000B9FD8246504617B0BDE8F08F079B9DED24
:10219000047BCDE923B341464B4638460C9A8DED7E
:1021A000207B229517B0BDE8F04F00F045B96107DC
:1021B00023464CBF042303234146219338464B4614
:1021C000079A48BF304CCDE922B258BF2F4C0C9A29
:1021D000209417B0BDE8F04FFFF78CBDDDE9042374
:1021E00000200021FFF756FC0123CDE904010D93E7
:1021F00023460DE723469C0740F0AA80BBF1040F5D
:1022000040F2A6800C9B1D461C1F04EB0B0A2A46BD
:102210004B46414620200135B847AA45F7D15546DF
:102220001B4C261F14F8010D2A464B464146B84761
:10223000B44205F10105F5D1079B0AF1040A98079C
:10224000A0D50C9CAAEB04039B459BD952464B4658
:10225000414620200AF1010AB847AAEB04035B4576
:10226000F4D38FE7AFF300800000000065CDCD41CF
:102270000000000065CDCDC1FFFFEF7FF0320110FF
:102280000000E03F676666662819011030190110EA
:102290003C190110CDCCCCCC0022DDE90A01634B06
:1022A000FFF7DAFC00287FF408AFBAF1000F6AD11B
:1022B0000AF1010A002E7FF403AF2046FFF772FCFB
:1022C00002460B46DDE90401FFF7E4FB02460B463C
:1022D000CDE904230022554BFFF7BEFC00287FF414
:1022E0000CAFDDE904010022504BFFF7F1FC0028A0
:1022F0007FF403AF013424F00104FEE6079B03F0F2
:102300000303012B00F08280202D3FF42EAF0D9BA4
:102310007BB32D220DEB050383F83820013524E72C
:10232000202B3FF4E9AE0EAA15441E44302204E0EF
:10233000202B05F8012F3FF4DFAE9E4203F101038D
:10234000F6D12E220DEB060383F83820751CD4E657
:10235000DDF830A063E720256EE6079B13F00C0F35
:1023600050D00BF1FF3BAB453FF6F2AE202D3FF4D2
:10237000FCAE079B5A0701D52B22CBE71B077FF545
:10238000F4AE2022C6E71AF0010F3FF496AE8FE7B5
:10239000A60734D1BBF1030F31D90C9B1D46DC1EBF
:1023A00004EB0B0A2A464B46414620200135B8472C
:1023B0005545F7D155461E4CE61E14F8010D2A4628
:1023C0004B464146B847A64205F10105F5D1079BAA
:1023D0000AF1030A9D077FF5D5AE0C9CAAEB040316
:1023E0009B457FF6CFAE52464B46414620200AF130
:1023F000010AB847AAEB04039B45F4D8C2E6DDF80E
:1024000030A0D7E7AB453FF6A3AEAEE6BBF1000F79
:102410003FF47AAF0D9B002B9FD00BF1FF3B5D4546
:10242000FFF496AE202D7FF474AF9EE60000E03FEF
:1024300037190110000000002DE9F04F9FB02A9ECF
:10244000DDE92845074693460891099322462B4625
:10245000204629460E96DDE92BA6FFF7EBFB002868
:1024600040F0BE80204629464FF0FF32784BFFF700
:102470002FFC002840F0B480204629464FF0FF3260
:102480006FF48013FFF7E8FB002840F0A980204696
:10249000294600220023FFF7DFFB002840F0D5810A
:1024A000CDE90A45DDE90A239046994606F4006223
:1024B00016F480630F92139340F0A18058EA090349
:1024C00040F0CA80002A40F0E38106230E9316F004
:1024D0000202109240F0D4815346042B38BF0423EB
:1024E0000C920422043B12920F93204629460022AC
:1024F0000023FFF7B1FB002840F0F3819DED0A7B3C
:102500000F9B5A4603930E9B8DED007B029326F49E
:10251000006304933846099B0899FFF72DFD024696
:1025200016F0200F099B08990CBF6520452002F189
:102530000108B8470C9A129B16AC5D1E82EAE27342
:10254000A3EBE273D10F002622469946DFF804C1BF
:1025500001E0202E10D0CE46ACFB0930C00800EBC5
:102560008003A9EB43033033BEF1090F814606F126
:10257000010602F8013BECD80523002006930A234C
:1025800005950094099D089C4246CDE90330CDE9AC
:1025900001612B4621463846FFF7FAFB109A804628
:1025A000D2B1A0EB0B06B24516D90BEB06022B46B7
:1025B000214620200136B847B245F6D80BF1FF334B
:1025C0005344CBF10102A3EB08034244924538BFC8
:1025D000002308F10108984440461FB0BDE8F08F81
:1025E0005A463846CDE92845CDE92BA60E9C099BD5
:1025F00008992A941FB0BDE8F04FFFF7BDBC58EA18
:1026000009032BD1002A3FF462AF00230C930E9BE9
:102610000C9A934200F3B9814FF0000820462946F6
:1026200000220023FFF718FB002840F013819DEDE6
:102630000A7B26F4006646F480668DED287B5A46B8
:102640003846CDE92A8A099B08992C96D2E700BF23
:10265000FFFFEF7FCDCCCCCC06230E93C9F30A50FD
:10266000A0F2FF30FFF79EFAC1A3D3E90023FFF7E2
:1026700025FAC1A3D3E90023FFF7F8F9C9F3130939
:10268000CDE90C0149F07F5140460022B24B41F4A4
:102690004011FFF7FFF9A4A3D3E90023FFF70EFAD7
:1026A00002460B46DDE90C01FFF7E0F9FFF79EFA61
:1026B0000C90FFF777FA9EA3D3E900238046894662
:1026C000FFF7FCF90022A54BFFF7D0F9FFF78EFAD0
:1026D000034649464046129397A3D3E90023FFF7E8
:1026E000EDF9804612988946FFF75CFA94A3D3E986
:1026F0000023FFF7E3F902460B4640464946FFF741
:10270000C9F902460B4680468946FFF7D7F942468B
:102710004B46CDE9100140464946FFF7A7F9002294
:10272000CDE91401DDE910018D4BFFF7EDF9002231
:102730008C4BFFF79BF902460B46DDE91001FFF7D2
:10274000E3F90022884BFFF791F902460B46DDE9D9
:102750001001FFF7D9F942464B46804689460020D2
:102760004FF08041FFF796F902460B464046494636
:10277000FFF77CF902460B46DDE91401FFF7C4F9C7
:1027800000227A4BFFF772F9129B002203F2FF3C02
:102790004FEA0C53FFF792F980468946DDE90A01BA
:1027A00042464B46FFF758FA50B10C9B4046013B5E
:1027B00049460C9300226B4BFFF7A6F980468946E9
:1027C0000C9A43466332C62A06F00202109249462A
:1027D0000F9A2CD8002A5ED0042212920B433FF4A9
:1027E00016AFDDE90A0158A3D3E90023FFF75CFA2D
:1027F00048B1DDE90A0156A3D3E90023FFF72CFA1B
:1028000000287FF404AF0E9B002B50D0139A002AAF
:102810007DD0013B0E93129B9A4505D9109B002B4E
:1028200000F0AE800223109300230F9344E022BBFC
:10283000BAF1050F4FD906F00203002B49D1052349
:102840001293AAF105030F933AE005F100430A94AD
:102850000B9327E626F4006646F4806638462C96ED
:10286000DDE90A67344607F100455A46CDE92A8A70
:10287000CDE92845099B0899BCE605221292ADE7EF
:1028800000230222CDE90F3204220C9312922CE68F
:102890004FF00508C2E6BAF1040F1FD9109B002BB8
:1028A00078D104231293AAF104030F9304E0129B3E
:1028B0009A4531D80E9B0F930C9B002B3FF415AE1D
:1028C000DDE90A0142464B46FFF71EF9CDE90A0150
:1028D0000BE60223109305231293F1E704231293CE
:1028E000EAE7DDE90A45A0460F9B05F1004903939D
:1028F0000E9B5A46029326F4006304933846CDE9B2
:102900000089099B0899FFF737FB024608E6129BEE
:102910009A4544D80F92CFE7109B8BB30E9B0F9331
:1029200002231093C8E700BF61436F63A787D23FBC
:1029300071A379094F930A401655B5BBB16B02409C
:10294000EF39FAFE422EE63F2D431CEBE2361A3FEA
:102950000000000080842E410000F83F0000E03FAE
:1029600000002C4000002440000018400000F03F10
:10297000FB799F501344D33FB3C8608B288AC63F6E
:10298000129BAAEB03030F9396E7A3EB020808F14F
:10299000FF3843E604231293022310938CE7109B25
:1029A000002BEDD002230F92109385E72DE9F04F15
:1029B0009BB0249C954D0A94954CB1F1000A18BF28
:1029C000834625601878934C914608BFA346099327
:1029D000002800F093824FF000080AE042464B4680
:1029E000514608F10108D847099B1878002800F0E3
:1029F000CE80099B252803F101030993EED11C46E3
:102A00000023224612F8010BA0F1200110290AD858
:102A1000DFE801F04009093C0909090909090938F9
:102A2000093409093000A0F130010929099440F264
:102A30008A802A2800F0F08000252E2800F0968059
:102A40000026A0F1680112292DD8DFE811F0490114
:102A50002C0043012C0038012C002C002C002C00F1
:102A60002C002C002C0027002C002C002C002C000B
:102A70002C002700144643F00103C2E7144643F03C
:102A80000203BEE7144643F00403BAE7144643F0DA
:102A90001003B6E7144643F00803B2E709994878F3
:102AA00043F480730132672809927ED8242840F2CB
:102AB000C180A0F12502422A00F2BC80DFE812F0BA
:102AC0005001BA00BA00BA00BA00BA00BA00BA009F
:102AD000BA00BA00BA00BA00BA00BA00BA00BA0026
:102AE000BA00BA00BA00BA00BA00BA00BA00BA0016
:102AF000BA00BA00BA00BA00BA00BA00BA00BA0006
:102B0000190137011901BA00BA00BA00BA00BA00B7
:102B1000BA00BA00BA00BA00BA00BA00BA00BA00E5
:102B2000BA00BA00BA00BC01BA00BA00BA00BA00D2
:102B3000BA00BA00BA00BA00BA00BC015801BC0120
:102B4000190137011901002500E0013205EB850567
:102B500000EB45051078303DA0F130010929F4D98A
:102B60002E28099202F101027FF46AAF099943F419
:102B7000806348781146A0F13006092E40F2218189
:102B80002A2800F02F8109920026013259E7444695
:102B9000C14501D809F1FF384B4642465146002055
:102BA000D84720461BB0BDE8F08FA0F16902D2B231
:102BB0000F2A3FD8012149F241079140394040F0A6
:102BC000F3800A2A3DD0072A34D10A9D55F8042BF8
:102BD000002A00F0138143F0210012AB1F460B9333
:102BE00003E0202900F014811A4602F00F04234666
:102BF000092C94BF303337330F2A07F8013B01F11A
:102C000001014FEA1213ECD802E100BFAD29001018
:102C10004C1A0020F11C00100A99099851F8045B25
:102C20004078002DCDE90921BCBF43F002036D427D
:102C3000013202E742464B46514608F10108D847A7
:102C4000D2E60A99002E51F8047B18BF3246387834
:102C500008BF4FF0FF32002800F07B83BC18A44669
:102C60003A4604E012F8014F002C00F03F819445F1
:102C7000F8D16446E41B5A0540F12281B44228BFD2
:102C8000344613F0020300F088820223CDE90A5192
:102C900042461D46464408E04B465146D84717F881
:102CA000010F08F1010810B142464645F4D12B4608
:102CB0000B990A9D002B40F041810A9194E60999F5
:102CC00048786C287FF4ECAE0A46887843F4407369
:102CD0000332E8E6099943F4007348780132E2E6EA
:102CE00009994878682800F0038143F08003013295
:102CF000D9E6672800F0D980472800F0DC80452815
:102D000000F0DB80CDE903530A9B0296073323F0E2
:102D100007031C464246F4E802674B4651465846B4
:102D2000CDE900670A94FFF787FB80465CE64628FA
:102D300008BF43F02003CDE903530A9B02960733F3
:102D400023F007031C464246F4E802674B4651460F
:102D50005846CDE900670A94FFF70EF9804643E62E
:102D600042464B465146252008F10108D8473BE62C
:102D70000A9A990702F1040408F1010640F1C6809D
:102D800010784B4642465146D847012D88BFA8448B
:102D900040F2BD8132464B46514620200136D8478D
:102DA0004645F7D10A941FE66F2800F0818040F273
:102DB0004882782800F090810A2723F01003BC464F
:102DC00041E0002606EB860600EB4600A0F1300647
:102DD00011F8010FA0F13002092AF3D90A4609912E
:102DE00001322EE6DDE9092151F8046B90780232B8
:102DF00009920A91013226EAE67622E623F01000D3
:102E000013F4806240F021003FF4E7AE12AB0B9365
:102E10000B9B069000930823102005930023424645
:102E2000CDE9023001914B46514658460496FEF7D3
:102E3000AFFF0A958046D7E5582862D0622840F057
:102E40008F800227BC4613F4806000F0DD8023F001
:102E50000D0313F4007240F081810A990F1D13F4E1
:102E6000807140F037825C060A9A40F13B8112780B
:102E7000002A40F04E8123F01003002800F0498121
:102E8000114612AA0B92CDE90553CDE903C6019173
:102E90000B9B4246009300235146029358464B46F3
:102EA000FEF776FF0A9780469EE543F4006329E724
:102EB0000827BC46C7E743F4006343F0200321E73B
:102EC00013F0020300F08E8102230A951E460D4680
:102ED00042464B465146D84717F8010F08F1010802
:102EE0000028F5D1294633460A9DE3E6D41BC2E605
:102EF0000A46887843F0C0030332D4E5044680468E
:102F000046E6102743F02003BC469CE7012D40F223
:102F1000F880464608F1FF372F4432464B4651466B
:102F200020200136D847BE42F7D10A9B3246187896
:102F300051464B46D847A8440A9455E54646A54213
:102F40007FF6BBAEA844A8EB04080C4632464B46BD
:102F5000514620200136D8474645F7D12146ACE6F8
:102F600013F4806200F0BB804FF4806223F0110CF8
:102F70001CF400770A9B4AD11CF4807003F104040E
:102F800040F034811CF0400F40F0A3801CF0800F13
:102F900000F0D381B3F9001081EAE177A7EBE17784
:102FA000BFB2CB0F002900F056813A4612A90F4656
:102FB000DFF8D8E30B910A930C9501E020280FD09D
:102FC0001546AEFB0213DB0803EB8301A2EB4101C4
:102FD0003031092D1A4600F1010007F8011BEDD828
:102FE0000A9B0C9DCDE9055CCDE9010304960B9B82
:102FF000424600930A235146039358464B46FEF738
:10300000C7FE0A948046EFE423F00C0321E7073360
:1030100023F00703194608465B6850F8081BDF0FCA
:103020000A9051EA030062D1002A40F09F811346C2
:10303000114612AACDE90C7500201546CDE90E689F
:10304000DFF848E30B9201E020282DD05A1842F116
:103050000002AEFB027828F0030707EB9807D21BAB
:103060001E469B1A61F100070C464FF0CC3101FB64
:1030700003F10EFB0711A3FB0E731944052307F0A0
:103080000108A8FB03389B180A2E03F130034FEA0E
:10309000570774F1000405F8013B00F1010047EA0D
:1030A000C1734FEA5101CFD2DDE90C75DDE90E683D
:1030B0000B9B424600930A23CDE9055CCDE901074D
:1030C000049603934B4651465846FEF761FE8046F0
:1030D0008AE419780F4664E71027BC46B3E623F06C
:1030E000100C45E71C064CBF12881268C0E60A4661
:1030F000191E01DB13469CE75242134661EB410166
:1031000097E713465146187842464B46D847B04693
:1031100048E613F0200F14BF4120612012ACA646F0
:103120000B940A93A0F10A040C9502E0202912D016
:103130002A46B2FBFCF50CFB1520C3B2092803F1AB
:1031400030008ABF1B19C3B2DBB262450EF8013BE7
:1031500001F10101EAD20A9B0C9D94E60A9A07321A
:1031600022F00702516852F8084B8E460A9254EA40
:10317000010276D123F01003002872D000221146FC
:1031800012AA0B92CDE905530B9B424600930023F4
:10319000CDE903C60191029394E7A54298BF01349B
:1031A0007FF674AD4FF48063CDE90A7505EB080234
:1031B0001F460D46141B42464B465146202008F13F
:1031C0000108D847A045F6D13B460A9F29463878E2
:1031D0000B9D6C1C00283FF470AD002B3FF475AEC6
:1031E000002353E5A542DFD801346EE61968CB0F02
:1031F000002900F0A88081EAE172A2EBE17212A935
:103200000846DFF888E10B910A930C9501E0202F26
:103210000FD01546AEFB0213DB0803EB8301A2EBD4
:1032200041013031092D1A4607F1010700F8011B51
:10323000EDD80A9B0C9DCDE9055CCDE901730496A0
:10324000D5E6692823F0100C40F08C8013F48062DE
:103250003FF48EAE88E6002A3FF4A8AE12AA0B9285
:10326000C0E613F0200F14BF41226122002012A9F2
:103270000A3ACDE90E68CDE90C35CDF844B00646E2
:103280008846754693460B91CDF840C003E0202E4A
:1032900017D004460D4629463A46002320460EF034
:1032A0005BFAD2B2092A02F1300388BF02EB0B03AA
:1032B000BC42DBB275F1000508F8013B06F10106DE
:1032C000E5D23146DDE90C35DDE910CBDDF83C8097
:1032D0000E9E57E70A99096851B923F0100338B1D7
:1032E00012A90B91CDE90553CDE903C60192CFE5B3
:1032F00013F0200F14BF4120612012ACA6460B949E
:103300000A93A0F10A040C9502E0202A12D0294663
:10331000B1FBFCF50CFB1510C3B2092803F130001A
:103320008ABF1B19C3B2DBB261450EF8013B02F143
:103330000102EAD20A9B0C9DD4E7196881EAE17781
:10334000A7EBE1772DE6002A3FF459AF12AA0B92C2
:1033500071E713F480640DD013F0020412D0044618
:103360004646ECE50A276346BC466CE512AB0020F6
:103370000B939DE613F002037FF4E0AD002D7FF484
:1033800013AF9AE4002D7FF40DAF96E4CDCCCCCCF6
:1033900070B594461E4605460C4684B04FF0FF3289
:1033A000634602A900960348CDE90254FFF7FEFAEE
:1033B00004B070BD6D1F001010B5094B84B01C68BF
:1033C0004CB1034600914FF0FF3203A90548A047D6
:1033D000012004B010BD00F065F9204604B010BD16
:1033E0004C1A0020651F001000BEFDE708B5FFF76E
:1033F000FBFF00BF38B5064C064DFEF707FAAC429E
:1034000004D254F8043B9847AC42FAD338BD00BF0D
:10341000D8170110E0170110036808461146184735
:103420002DE9F0411546427D07468846002A46D0E0
:10343000002D1DDD0B780A2B23D0012D4FF0000C41
:1034400018D04646012416F8012F21460A2A04F115
:10345000010422D0A542F6D165450BDC08EB05033B
:1034600013F8013CA3F10D03B3FA83F35B093B7539
:10347000BDE8F0813B68A5EB0C0108EB0C00984718
:10348000ECE7037D002BD8D1036802210F48984751
:10349000012DE3D04FF0010CD3E716F8013C0D2BC2
:1034A000D8D08C4508EB0C00A1EB0C0101DA3B688D
:1034B0009847022105483B689847A446CAE7294631
:1034C00040463B68BDE8F041184700BF403301105B
:1034D0000B682DE9F041802B0D46064605D05A1C9D
:1034E0002B442A601E71BDE8F0810F4B1C68A4B10B
:1034F0000E4F01F1040801E0246974B12368002B28
:10350000FAD03B680BB1A342F6D1204641462A6867
:10351000FFF786FF2469002CF0D1002301222B4401
:103520002A601E71BDE8F0811C1A0020201A0020BC
:103530002DE9F04782B00D4691461C460646FEF73F
:1035400021F84FF0FF3C6FF000472E4A821841F1FE
:103550000003944577EB03013CBF62463B462A4893
:103560000EF002F96B1C804640D00CB3274F284B5D
:103570001C68B4B1B9F1000F1CD1DFF89C9001E0D8
:10358000246974B12368002BFAD0D9F800300BB14C
:103590009C42F5D120462A463146B8472469002C82
:1035A000F0D1B8F1000F26D1284602B0BDE8F0876F
:1035B000184FDCE74FF00A0ADFF85C9002E024695C
:1035C000002CEED02368002BF9D0D9F800300BB1D5
:1035D000A342F4D12A4631462046B847012220466C
:1035E0000DF107018DF807A0B847E8E730460EF067
:1035F00081F80546B9E704480EF0B2F8284602B053
:10360000BDE8F08740420F00700800202134001010
:103610001C1A002019340010201A002000207047C6
:10362000F0B583B006468DF80700FDF7ABFF4FF00D
:10363000FF356FF00044174A821841F100039542AC
:1036400074EB03013CBF23462A4613480EF08CF866
:10365000124B07461C689CB1114D01E024697CB1F6
:103660002368002BFAD02B680BB19C42F6D1204680
:1036700001220DF10701FFF7D3FE2469002CEFD1E1
:1036800017B9304603B0F0BD03480EF069F8304674
:1036900003B0F0BD40420F00700800201C1A00204B
:1036A000201A002038B504460EF024F80123054600
:1036B0001A4620462946FFF73BFF084B1C682CB1F1
:1036C00063682BB198472469002CF9D1284638BD8E
:1036D0002469002CF4D1284638BD00BF1C1A0020F4
:1036E0002DE9F041A2B004460D46FDF74BFF4FF027
:1036F000FF376FF00046264ADFF8A480821841F1B8
:103700000003974276EB03013CBF3A46334621481B
:103710000EF02AF800272B462246064601A91E482D
:103720000197FFF735FE019B0546D8F80040C3B16D
:10373000002C2BD0194F01E0246974B12368002BB1
:10374000FAD03B680BB1A342F6D12046019A02A9F8
:10375000FFF766FE2469002CF0D10023D8F8004062
:1037600001932CB1636843B198472469002CF9D1C7
:103770002EB9284622B0BDE8F0812469F1E705485A
:103780000DF0EEFF284622B0BDE8F0810194EFE78E
:1037900040420F0070080020D1340010201A002091
:1037A0001C1A00200FB400B583B004A951F8040B13
:1037B0000191FFF795FF03B05DF804EB04B070478B
:1037C00005F012BB012370B50B72044605F03AFBFD
:1037D000431C0CD1104AD2E90032256820460F491B
:1037E0006C69C1E902322346BDE8704018470546BE
:1037F000FDF7C8FE03460A464FF47A704FF0FF3ECD
:103800006FF0004CE5FB00329E457CEB02013CBFB3
:1038100073466246E1E700BF8832011010080020BD
:1038200038B5094D04462B7843B101252368074973
:103830002046DB690D729847284638BD00F094FA9F
:1038400001232B70F1E700BF4CC4002028080020A2
:1038500010B50446036805499B69984723682046CC
:10386000BDE8104002491B6A184700BF100800203D
:103870002808002000207047704700BF08B5FDF7FA
:1038800081FE29B14FF47A7200230DF065FF08BD67
:10389000024AA2FB0020800908BD00BFD34D621080
:1038A00083681BB906E01A6832B113468B42FAD11D
:1038B0000020704700F108030022196001200A600F
:1038C000704700BF836800F108021BB908E01A4680
:1038D0001B682BB18B42FAD11B6801201360704723
:1038E0001846704743681BB906E01A682AB11346A8
:1038F0008B42FAD100207047031D0022196001207D
:103900000A6070474368021D1BB908E01A461B682D
:103910002BB18B42FAD11B68012013607047184607
:10392000704700BF344B2DE9F047D3E90045836869
:10393000804663B300F10806FDF724FED8F808A01E
:10394000B646BAF1000F22D053464FF0000CD3E92F
:103950000227B0EB020961EB0709B9F1000FA8BF1C
:10396000F4469E461B68A4BF10463946002BEED194
:10397000BCF1000F3BD0DCF800104046D1E9002339
:10398000CCF800209847D8F80830002BD4D1D8F8CC
:10399000046006B30027337A1BB33146736837726D
:1039A000404698473668002EF5D1D8F808A0BAF1FD
:1039B000000F10D05246D2E90231E01A65EB010245
:1039C000012872F10002DAF800A0F0DB1C460D4677
:1039D000BAF1000FEED120462946C8E90445BDE8FA
:1039E000F0873668002ED6D1D8F808A0DFE7D8F8DF
:1039F0000460002ECED1DDE788320110F0B4154FFF
:103A0000154AC01942EB0101820F42EA8102134BB1
:103A1000424002FB03F3124E81EA917106FB01332F
:103A2000A2FB06263344D00E0E4C40EA4310504011
:103A300004FB00F10C4D83EAD363A0FB050205FBF8
:103A40000311F0BCC30F114443EA4103584081EA1B
:103A5000D1717047157C4A7FB979379E6D4758BF41
:103A6000B9E5E41CBB49D094EB11311370B5EFF309
:103A7000108C72B6204CD4E8CF2F0123002AFAD143
:103A8000C4E8423F002AF6D1BFF35F8F1B490B7891
:103A9000012B10D9023BDBB21846194A03F1010E83
:103AA0000B7052F8200052F82E100023C4E88F3F0C
:103AB0008CF3108870BD4FF0FF320020114B18635B
:103AC0009A63DA629A60D3F8B820002AFBD1042006
:103AD0005D690B4A4FF0050E15609D695560DD6903
:103AE00095601D6AD5605D6A1561074D9E6A2D68F7
:103AF0005661DD600346D3E74C0A002057C400201E
:103B000018C4002000010F4010010020F8B5D0E9D2
:103B1000006405468068E96846EA000344EA010259
:103B2000134304D1FDF72EFD50EA0103FAD086EAD3
:103B300000036140A000B7002206BF1940EA96705A
:103B40004FEA066E42EA16224FEA014646EA13465B
:103B50004EEA142E82EA010244EB000072408EEA23
:103B6000030484EA03446A60DA0E4FEAC71C42EA9F
:103B700041122C60C90EC40144EA57644CEA5060FB
:103B800041EA4313EB60E100C300181841EA5C719D
:103B9000AA6044EB0101F8BD2DE9F04F5C4D8DB0FA
:103BA0002B78002B55D05B4C5B4F08AEBB68DFF821
:103BB0006C810093D7E900A598F800B0D7F80C9075
:103BC000FDF7E0FCFFF71AFF80EA0A0A4D40FFF715
:103BD0004DFFFFF713FF009B5FFA8BFB584081EA14
:103BE0000903EFF3108972B6D4E8CF1F0122002930
:103BF000FAD1C4E8412F0029F6D1BFF35F8F98F8BE
:103C000000205A4508D03A688AEA020A7A68554084
:103C1000BA685040FA685340CDE90A033046CDE90E
:103C200008A5FFF773FFDDE90AAB98F80030C7E994
:103C300002ABDDE908AB0133DBB20022C7E900AB20
:103C400088F80030C4E88F2F89F310880DB0BDE8E4
:103C5000F08F08AE3046FDF77DFDDDE90A34DDE981
:103C60000889CDE90034FDF78DFC83468A46FFF7CD
:103C7000FDFE03460F46EFF3108272B6254CD4E8E2
:103C8000CF0F01210028FAD1C4E8401F0028F6D147
:103C9000BFF35F8F297831B11F4F0023C4E88F3FF6
:103CA00082F3108882E758465146CDE90223FFF798
:103CB000A5FE86468C4640464946E046F146FFF75B
:103CC0009DFE039B81EA080180EA0900CDE9040119
:103CD00018463946FFF792FE0F468046DDE900019F
:103CE000FFF78CFE794080EA0800CDE9060104A8C0
:103CF000FFF70CFFDDE906010123074F029AC7E930
:103D00000201DDE904012B70C7E90001C5E700BF2E
:103D100053C400204C0A0020100100204AC4002097
:103D200008B5FFF739FF08BD00B545F247308BB045
:103D3000FDF704FD01220346092101A89847DDE9AA
:103D40000332044912BA1BBAC1E900230BB05DF873
:103D500004FB00BFE4C300200346024A03CA186004
:103D600059607047E4C3002008B501F077FB00F00C
:103D7000FDFA00F0ADFC00F051FD05F075F801F022
:103D8000EDFB00F06DF9BDE8084004F0EBBF00BFAB
:103D900040BA80B2704700BF00BA70472DE9F041C9
:103DA000524D04462B68884613B12A7A824271D05C
:103DB0004F4E2701EB6813B12A7DA24260D0AB6958
:103DC0001BB195F82020A24250D06B6A1BB195F828
:103DD0002C20A24225D03B1906EB0313DB7B7CB3DE
:103DE000B27A022A62D0012C2ED096F81A21022A29
:103DF00060D0022C2CD096F82A22022A6CD0032BF9
:103E00000DD83C4D274455F8230005F043FB002214
:103E1000042106EB0717FB7BF97345F82320BDE867
:103E2000F081381906EB00104146AA6A1030984715
:103E300000236B623B1906EB0313DB7B002CCFD115
:103E400096F81A21022A4CD096F82A22022A3ED04D
:103E500096F83A23022AD2D196F83F239A42CED13D
:103E600004223B1906EB0313DA73D8E7381906EB83
:103E700000104146EA69103098470023AB61A4E77F
:103E8000381906EB001041462A6910309847002384
:103E9000EB6094E700EB0010154E000110306A68EB
:103EA00030449847002327012B6083E7F27B9A4236
:103EB00099D1D5E796F81F219A42D1D0022CC7D0CC
:103EC00096F82A22022A07D0032CC1D197E796F848
:103ED0002F229A42BCD1C3E796F82F229A42F3D1FF
:103EE000BEE796F81F219A42EAD1B9E7A41500204F
:103EF000DC150020941500202DE9F04FDFF85CA1BF
:103F000000EB0013020187B00AEB03140092E27A7F
:103F1000012A00F299804E4951F82250002D00F0FC
:103F200087801B0110330AEB0305074628460DF076
:103F3000E1FB014612314FF42072362089B200F0C5
:103F40006FFE804600286AD000232089CDE9033324
:103F50000593FFF71DFF01238DF80E304FF480739A
:103F60000C264FF6FE79ADF80C000C22404603A952
:103F7000ADF81030013D01F00DF9019769786F1C23
:103F80002E295CD03A46002449B1517801342E29BB
:103F9000E4B202F1010045D002460029F5D1A2EBBE
:103FA000070B154622461FFA8BFB32444A4533DC89
:103FB00022463146404601F093F9701C5A4683B2BE
:103FC00034443946404601F01BF9A4B22A78661CF5
:103FD000B6B2002AD2D131464046019F01F080F9A5
:103FE0004FF001230293A31C04229BB202A9404676
:103FF00001F006F9009A16483A440AEB021A9AF8B8
:104000000B20144900EB82029AF80F00352351F877
:104010002000414605F0D0F9404600F04DFF07B0C2
:10402000BDE8F08F521B1FFA82FB05462246BCE713
:104030002946FFF7B3FEA57207B0BDE8F08F002256
:104040003D4693461446B0E70348FCF7FFF900BF2E
:10405000D41500209415002040190110DC15002013
:10406000704700BF012800D9704721B1054B0A688D
:1040700043F820207047044A024B126843F820207E
:10408000704700BFD415002030340110F8B500256A
:10409000464C14F8013CEFB2032B00F28480DFE8B9
:1040A00003F01D022F23424EFFF73AFEB27A83B28D
:1040B000022A44D096F81A21022A47D096F82A22DA
:1040C000022A4BD096F83A23022A4FD0394A384672
:1040D00024F8033C44F8012CFFF70EFF0135042DB2
:1040E00004F58874D5D1F8BD54F80B3CF3B900231E
:1040F00004F8013C0135042D04F58874C9D1F2E7B8
:104100006378013BDBB26370002BE7D1A378013306
:10411000DBB2042BA3702ED0637038460135FFF755
:10412000EBFE042D04F58874B3D1DCE7013B44F8C1
:104130000B3C002BD2D1002304F8013CDAE7328992
:104140009A42B1D096F81A21022AB7D1B6F81821AE
:104150009A42A9D096F82A22022AB3D1B6F8282288
:104160009A42A1D096F83A23022AAFD1B6F8382362
:104170009A42ABD198E723783BB90F4A526822B1F3
:1041800040F20112A3702280C7E700213846FFF7F2
:1041900005FE00230135042D04F8013C04F5887464
:1041A0007FF477AF9FE70548FCF750F9E71500204B
:1041B000DC15002002000100D41500205819011060
:1041C00070B510F001064FF0000406D0A1424DDD9D
:1041D00010F8013B013963F31F2410F003034AD1A7
:1041E000072950DDA1F1080500F1100E25F00702A6
:1041F000964400F1080C5CF8082C0CF1080CD2185D
:104200005CF80C3C28BF01329B1828BF0133F445F1
:10421000F1D1C908C1F10101A0EBC100083005EBE3
:10422000C1019AB2012902EB134312DD028803296E
:10423000134405DD428805291344C4BF82889B18B6
:104240004A08C2F101020239A0EB420001EB42012F
:104250000230012904BF027862F3070423449AB2B2
:1042600002EB13439CB204EB134416B124BAC4F31B
:104270000F44A0B270BD012903DD30F8023B0239C2
:10428000AEE70023E5E71A46CCE700BF2DE9F84387
:10429000089C1B6824688846250C15FA84F414FAD7
:1042A00083F404EB1344A3B203EB14439CB217460C
:1042B00004EB1344D8B105464FF000096E896868D5
:1042C0003146FFF77DFF204484B2F30704EB10442E
:1042D00004D524BA89F00109C4F30F442D68002DD8
:1042E000ECD1B9F1000F02D024BAC4F30F44404618
:1042F000FFF74EFD05463846FFF74AFD28442044A7
:1043000083B203EB104398B200EB1340C04380B27A
:10431000BDE8F883FFF7BABF08B5FFF751FFC04308
:1043200080B208BDF8B1F8B5002705463C466E8955
:1043300068683146FFF744FF0444A3B203EB14441A
:10434000F30704D524BA87F00107C4F30F442D689E
:10435000002DECD127B120BA6FEA104080B2F8BD31
:10436000E04380B2F8BD4FF6FF70704710B40020F4
:104370004FF47A6401210A4B0A4A23F003031360C5
:10438000094A1871181983F8A41F10600749084AD0
:104390001C60C3F8A01F5DF8044B1360704700BF9A
:1043A0001FB4002014B4002018B40020A00FA00FE8
:1043B000501A0020002877D02DE9F84383077CD1DC
:1043C000414AA0F1080312689A4273D83F4C00F1A9
:1043D0000C0124688C426DD310F8041C00296FD0A6
:1043E00030F8081CB1F57A6F10D830F806ECBEF53D
:1043F0007A6F0BD8A3EB02081FFA88F8F04502EB9E
:104400000E0606D032F80E50454502D03048FCF773
:104410001DF802EB010C64453AD0BCF8025045454A
:10442000F4D100252B4F00F8045C3D689D4284BF09
:104430001D463B609C423AD9634518D09CF80490D5
:10444000B9F1000F13D1644511D0BCF80010AC4590
:1044500004BF1D463B60B1F57A6F20F8081C06D0FA
:104460005418A4F8028030F806EC02EB0E06B342B2
:104470000CD0307950B9AB4208BF3E60B1F57A6FCD
:1044800018BF5218318018BFA2F802E0BDE8F883C7
:104490000025104F00F8045C3D68AB4205D29C42F9
:1044A0003B6004D91D46C9E770479C42C6D80A48FC
:1044B000FBF7CCFF0948FBF7C9FF0948FBF7C6FF2C
:1044C0000848FBF7C3FF00BF14B4002018B4002055
:1044D000E0190110501A0020141A01109C19011043
:1044E00078190110B8190110CB1C23F003039BB2FB
:1044F0000B2B3CD9B3F57A6F3CD899423AD82C4A69
:1045000070B5146884424AD82A4A1268824246D951
:1045100030F808CCA0F10802121B92B2ACF10801ED
:10452000891A89B299423DD320D004EB0C0E9EF833
:1045300004500DBBBCF57A6F37D01F4D02F1080156
:104540002E680B449BB2764534F80CC004EB030193
:1045500023D000250D7124F803C04A8020F8083CC0
:10456000E25AB2F57A6F01D02244538070BD0C2319
:104570009942C4D90020704703F11405ADB2A94295
:10458000F4D302F108010B44BCF57A6F9BB20CD056
:10459000094DE1182E688E42DBD92960D9E707481A
:1045A000FBF754FF0648FBF751FF0648FBF74EFFA9
:1045B00014B4002018B40020501A0020301A011042
:1045C000481A0110681A011000285ED02DE9F8433E
:1045D000C31C23F003039EB20B2E27D9B6F57A6FC6
:1045E00021D8B0421FD8344BDFF8E0801D68D8F8DE
:1045F0000070C6F57A617A1B90B28142034612D9E7
:104600006FF0070E2C189C4694F804902B5A024623
:104610001846B9F1000F04D1AEEB02021A44B242BF
:1046200006D29942EED80020BDE8F8830C26D8E7E0
:1046300006F114018A4206F1080610D20123237103
:104640001E4BA742196821D02644B1422DD3A3079F
:1046500008BF04F10800E7D01948FBF7F7FE0CEBA0
:10466000060292B2B2F57A6F22D00120A91881F821
:104670000490AB52A1F802C022802071AB5AB3F56E
:104680007A6FDDD02B445A80DAE770473B7923B943
:10469000DAE73F882F443A7922B18F42F9D1C8F83E
:1046A0000010D1E7C8F80070CEE70648FBF7CEFE51
:1046B0000548FBF7CBFE00BF14B4002018B400205F
:1046C000AC1A01107C1A0110681A0110501A00204F
:1046D000F0B504240027114D114B124E05F1240EA4
:1046E000033355F8042B23F0030337606CB100212A
:1046F000B2F800C00A4600E003460132A242196047
:1047000003EB0C001946F7D13360AE4504D02A689C
:104710005488D2E90136E3E7F0BD00BF443301100D
:104720008CAB0020B4B30020082810B511D80C4B76
:1047300053F82040FFF79EF8A3681C683CB122683C
:104740001A60A30708D1FFF797F8204610BDFFF7BE
:1047500093F80024204610BD0248FBF777FE00BF07
:1047600044330110F01A0110082812D838B50C464D
:1047700071B10A4B53F820508B070BD1FFF77AF831
:10478000AB681A6822601C60BDE83840FFF774B857
:1047900038BD70470248FBF759FE00BF4433011093
:1047A000141B01106FF00B00704700BF70B582B092
:1047B000002A2ED014460B684268054693420E46E6
:1047C00001D102B070BD2260204601A9019301F021
:1047D000EFFD204601A904F085FE01A9204600F066
:1047E0001FFE95F83920336802F0050105296B603A
:1047F00006D0EB69002BE4D02846984702B070BD84
:10480000002BF6D01307F4D52846291D06F0C4FF67
:10481000EFE70148FBF71AFE341B0110704700BF99
:104820002DE9F04182B0099E002867D0002E65D0A6
:104830009846089B174643620A9B454D0361002337
:10484000002908BF2946002A08BF2F46B8F1000FEB
:1048500008BFA8463F4A404DC0E9013342612A786B
:10486000C36080F83C2080F839308362C0E90733A8
:1048700003860B680446002B44D03B6883B38360F7
:10488000D8F8003083BB204601AAFFF78FFF2046EF
:10489000B047034690BB314E94F83CC03068BCF141
:1048A000FF0F04BF9C4684F83C3000283ED00346EE
:1048B0004FF4807202E01B68002B37D09C4244D03A
:1048C000013A13D093F83C106145F4D10CF1010C7E
:1048D0005FFA8CFCBCF1FF0F0BD084F83CC0E6E71C
:1048E000D8F80030002BCED0E360CCE71C48FBF7B3
:1048F000ADFD4FF0000C84F83CC0D8E7002002B0BA
:10490000BDE8F08101AAFFF751FFD4E902123B682C
:10491000994205D1D8F800309A42B8D0E360B6E7A2
:10492000A360D8F800309A42F8D1B0E7BCF1FE0F8E
:10493000206008BF002320461CBF0CF10103DBB23E
:104940002B70346002B0BDE8F0810648FBF77EFDB5
:1049500030340110A547001050C40020D4B300200B
:10496000581B0110441B0110F0B5274D04460029C7
:1049700014BF0E462E46002A14BF17462F46002BA2
:1049800018BF1D46336883B06BB100213B68A26835
:10499000934218BFA3602B68E268934218BFE3609C
:1049A00029B103B0F0BD426842B90121EEE73146BA
:1049B00020466A46FFF7FAFE03B0F0BD684601A93B
:1049C000CDE9002301F0F4FC684601A904F08AFD5A
:1049D00001A9684600F024FD94F83920336802F0FC
:1049E00005010529636005D0E369002BDDD0204671
:1049F0009847DAE7002BF7D01307F5D52046211D9D
:104A000006F0CAFEF0E700BF3034011000283CD0A9
:104A100038B543680446DBB994F83930DA0728D44E
:104A20001C4B1A68A24204BF00221A601A4A13687B
:104A3000A34207D02BB11A68A24206D01346002B1E
:104A4000F9D138BD2368136038BD22681A6038BDBB
:104A5000051D0021284601F0ABFC0021284604F08A
:104A600041FD0021284600F0DBFC94F83930DA07DC
:104A7000D6D523F001021B0784F8392006D4E36958
:104A8000002BCDD020469847CAE77047204606F055
:104A900045FBF4E7D0B30020D4B30020014B1860ED
:104AA000704700BFD0B30020F0B110B590F8393096
:104AB0000446DA070CD4C26943F0010380F83930A8
:104AC00012B1904794F8393003F00502052A00D05E
:104AD00010BD6268002AFBD01B07F9D52046211DB6
:104AE000BDE8104006F058BE704700BF18B310B5BF
:104AF00090F8393004465A0700D510BD43F004033E
:104B000080F8393005F0B8FC94F8393003F005022C
:104B1000052A06D0236A002BEFD02046BDE81040BE
:104B200018476268002AF5D01B07F3D52046211DDF
:104B300006F032FEEEE7704750B190F83920510789
:104B400006D5016A22F0040280F8392001B1084735
:104B5000704700BF024658B1064B186810B907E00D
:104B6000006830B190F83C300133DBB29342F7D1AA
:104B700070477047D4B3002070B5054650B3002687
:104B800009E0012B21D053BB2846FFF713FC013667
:104B9000F6B2C4B12546FEF76DFEAC7BE4B1013C34
:104BA000E4B2AC73FEF768FE6CB92B7B2C6803F0A3
:104BB0000F03022BE5D1294608200136FFF7D4FD6B
:104BC000F6B2002CE6D1304670BD29460720FFF72B
:104BD000CBFDDCE70646F6E70248FBF737FC024868
:104BE000FBF734FC881B0110A01B011008B5FEF771
:104BF00041FE0022084B1A70FEF73EFE074B186874
:104C000010B908E0C06830B1436F002BFAD0BDE89E
:104C1000084001F017BC08BD51C40020F4C30020B7
:104C2000B2F5C17F2DE9F843894643D04FF0000625
:104C300061F30F06154661F31F4607D822F04003C3
:104C4000012B9CB227D03B48FBF700FCB2F5207F3C
:104C5000F9D1C31C01F1030929F0030923F003036F
:104C60004B449BB204464B4503F1100080B25ED327
:104C700081455CD8FFF7A8FC8046C0B1002203192B
:104C80002D49133323F00303C160C0E901360260EC
:104C90004046BDE8F8830720FFF746FD804630B167
:104CA0000023C0E9003386600573C4814373404626
:104CB000BDE8F8830024074640F2EC56A0461F4D9D
:104CC00005E02060B9F1000FF1D00446002708206C
:104CD000FFF72AFDF0B1FB1C23F00303F31A9BB28C
:104CE0004B4528BF4B4600220744133727F00307E4
:104CF0004381A9EB0303A0F808904760C5600260F8
:104D00001FFA83F9B8F1000FDBD18046B9F1000F2B
:104D1000DBD1CCE7FEF7AEFD0122094B1A70FEF79E
:104D2000ABFDB8F1000F02D04046FFF725FF4FF072
:104D30000008BCE7B41B01108000010082000100E4
:104D400051C4002038B5002834D004460089884278
:104D50001CD9081A06E02389891A03442381246890
:104D600089B20CB362898A42F5D30025237B61F3B3
:104D70000F051B0761F31F4501D18A4207D1206847
:104D8000A56008B1FFF7F8FE0023236038BD636813
:104D900020461B1B194489B2FFF7A6FB38B1844299
:104DA000EDD00648FBF752FB0548FBF74FFB0548E3
:104DB000FBF74CFB0448FBF749FB00BF1C1C011030
:104DC000E81B0110001C0110D01B011010B5F0B140
:104DD000B1F5803F0BD2C1B103898AB213449BB2B3
:104DE0009A4204D890F90CC0BCF1000F01DB0120FD
:104DF00010BD446800F1100C611A6145F7D3B0F89A
:104E00000AC04160624442810381002010BD014814
:104E1000FBF71CFB381C011010B598B1B1F5803FB1
:104E20000ED259B143898AB29A4209D844689B1A72
:104E30000C44018944608A1A43810281002010BD1C
:104E4000012010BD0148FBF701FB00BF381C011019
:104E5000002910B514DB48B381B103898AB2134429
:104E60009BB29A4220D84468611A90F90C40002CF9
:104E700016DB44894160224442810381002010BD39
:104E8000494298B143898AB29A420DD844689B1A24
:104E90000C44018944608A1A438102810020EEE7B4
:104EA00000F11004A142E4D2012010BD0148FBF73B
:104EB000CDFA00BF381C011008B1FFF75DBE08B580
:104EC0000148FBF7C3FA00BF381C0110034630B19C
:104ED00000201B68013080B2002BFAD17047704768
:104EE00058B110B50446FEF7C5FCA37B0133A3738C
:104EF000FEF7C2FCA37B0BB110BD70470148FBF766
:104F0000A5FA00BF441C0110C8B1C1B1884210B558
:104F100018D002680AB913E022460389B1F808C024
:104F20001468634403811046002CF5D1108953891D
:104F300083420AD1088911600344138110BD704770
:104F40000246F3E70248FBF781FA0248FBF77EFAD4
:104F5000581C0110741C011010B50C46F0B1E1B1E1
:104F600088421ED003683BB1028921890A4402812C
:104F700018461B68002BF7D102894389934216D14A
:104F80002289046013440381FEF774FCA37B013380
:104F9000A373FEF771FCA37B33B110BD0029F3D1DD
:104FA00010BD0448FBF752FA0348FBF74FFA0348D9
:104FB000FBF74CFA581C0110441C0110741C011022
:104FC000002900F099802DE9F8431F460B89884697
:104FD00093421546C0F087800646002800F0838083
:104FE00002897B199A427EDB4FF000097489B8F878
:104FF0000A30E41BA3EB09039C4228BF1C46AC42C9
:1050000028BF2C467068D8F804103844494422461A
:105010000CF0FAFA738927442D1BBB42A144ADB2B0
:1050200067D3B8F80A204A4560D312D0BB4224D0D7
:10503000B8F8081091421BD032899A4202D0002D54
:10504000D4D13AE03368002BF9D06FF00500BDE809
:10505000F883D8F80080B8F1000F19D0BB424FF0A8
:1050600000090AD0B8F80A20B8F808109142E3D134
:10507000D8F80020002ADFD0E7E73668B6B1B8F8E4
:105080000A20B8F808309A421AD000277389D3E76B
:105090004DBBBB421AD032899A420ED13368002BE5
:1050A00014BF6FF005000020BDE8F883DDB9B8F843
:1050B0000820B8F80A309A420DD00020BDE8F883E5
:1050C000D8F80070002FC0D17389B5E73668002E7C
:1050D000F3D07389DFE7D8F80030002B14BF6FF0EE
:1050E00005000020E0E76FF00F00DDE70448FBF764
:1050F000ADF90448FBF7AAF96FF00F00704700BF45
:10510000BC1C0110A41C011019B100230A89FFF76F
:1051100057BF6FF00F0070472DE9F041054670B1A1
:105120000F4681B3164692B3B5F80AC05BB163452A
:10513000A3EB0C0207D32D6893B2002DF4D1A8463F
:105140004046BDE8F0814FF0000804E0002DF7D0A4
:105150000023B5F80AC0ACEB0304A4B2B44228BFE4
:1051600034466968361B224607EB0800194444445C
:10517000B6B20CF049FA1FFA84F82D68002EE5D17A
:105180004046BDE8F08188464046BDE8F081904643
:10519000D6E700BF48B32DE9F843884611B3038929
:1051A00005469342914617D39AB11646002700E070
:1051B000ADB16C896868B44228BF344608EB07017A
:1051C00022460CF021FA361B2D682744F0D1B94550
:1051D0000ED10020BDE8F8834FF0FF30FAE7064813
:1051E000FBF734F96FF00F00F4E76FF00F00704732
:1051F0000248FBF72BF900BFD81C0110F01C01106E
:1052000000284AD02DE9F04705460E4604E02D68F7
:10521000DB1B9BB2002D3DD06F899F42F7D92989B6
:1052200003EB0209494535DB68681844FB1A9A42CA
:105230002ADD9CB2A9EB0709224631461FFA89F9FB
:105240000CF0E2F9B9F1000F21D02F685FB33B8970
:105250004B451FD3C8464FF0000A00E007B37D89D5
:1052600004EB0A01454528BF454678682A46314483
:105270000CF0CAF9B8EB05083F68AA44EED1D14555
:1052800005D00A48FBF7E2F831460CF0BDF90020E2
:10529000BDE8F0874FF0FF30FAE74FF0FF3070477E
:1052A0000348FBF7D3F86FF00F00F1E7F01C011093
:1052B000D81C011038B514460A462189FFF7B0FC06
:1052C000054628B1002321462289FFF779FE08B957
:1052D000284638BD0148FBF7B9F800BF081D01108A
:1052E00018B90AE0006899B230B143898B42A1EB4A
:1052F0000303F7D943685A54704770472DE9F84FB4
:105300008046434FDFF814A13968786907F008FB3D
:10531000D8F80430DAF800405D7A002C72D000280A
:1053200036D1064604E0E2682646002A2ED014460E
:10533000227CAA42F7D1217A31B17A6892F83C20D6
:105340000132D2B29142EED1216811B17A69914213
:10535000E9D1627CD10703D561683A699142E2D113
:10536000D4F81490B9F1000FDDD09B464246214697
:10537000284BA069C84700283AD1D8F804309B458B
:1053800042D1E26802202646002AD0D1BDE8F88F3B
:105390000020064604E0E2682646002AF6D01446BD
:1053A000227CAA42F7D1217A31B17A6892F83C2066
:1053B0000132D2B29142EED12268002AEBD1627C56
:1053C000D20703D561683A699142E4D1D4F81490C8
:1053D000B9F1000FDFD09B46424621460D4BA06934
:1053E000C84728B9D8F804305B450DD10220D2E770
:1053F00036B1E268DAF80030F260CAF80040E360E3
:105400000120C3E72046C1E70348FBF71FF800BFB0
:10541000341A0020441A00201C1D0110D8C300209B
:1054200088B102687AB171B10B6863B10A4B1B682D
:105430004BB110B41C68944206D0DB68002BF9D144
:105440005DF8044B704770470A681A60DB68002BF0
:10545000F6D00268EEE700BFD8C30020704700BF57
:1054600010B5E8B1037D0446042B03D0072B0BD005
:10547000032B07D102F0BAFD58B905232046237546
:1054800003F09EF8002010BD02F0B0FD08B909231A
:10549000F4E7431CF7D1638B43F008036383F1E720
:1054A0000148FAF7D3FF00BF681D011070B506462A
:1054B000806F18B1FFF700FD0023B367746FB4B1BC
:1054C000D4E9005058B1FFF7F7FC21460420FFF75C
:1054D0004BF955B12C46D4E900500028F3D12146B0
:1054E0000420FFF741F9002DF4D1002373674FF634
:1054F000FF73F46E3386A4B1D4E9005058B1FFF7BE
:10550000DBFC21460420FFF72FF955B12C46D4E9E6
:1055100000500028F3D121460420FFF725F9002D83
:10552000F4D1346FA4B1D4E9005058B1FFF7C4FCF2
:1055300021460420FFF718F955B12C46D4E9005054
:105540000028F3D121460420FFF70EF9002DF4D1F5
:105550000023C6E91B33A6F8683070BD08B5FEF716
:10556000DFFB6FEA80406FEA9040014B188008BD76
:105570003C08002008B5037D012B05D0BDE808409C
:1055800001460220FFF7F0B80148FAF75FFF00BFBD
:10559000741D011038B5F0B1034641F2D06E018D93
:1055A000C26A446A5D8E881A7545204494BFA0EB98
:1055B000050CA0EB0E0CBCF1000F06DA121B06D492
:1055C000B2F5803F0AD2002091B2598538BD002142
:1055D0000846598538BD0348FAF738FF0248FAF7FC
:1055E00035FF00BF881D0110AC1D0110002837D009
:1055F00038B5037D012B3AD042F6A053028D1144F9
:1056000089B299421AD9194641F2D06EC26A458EC2
:10561000446A754594BF02EB050C02EB0E0C234463
:10562000A3EB0C0CBCF1000F01850BDA121B18D494
:10563000B2F5803F38BF428516D238BD8A42E2D8E3
:105640000B46E1E740F667349B1AA3424185F4D943
:10565000438B43F002034383BDE8384002F0B0BF00
:1056600070470023438538BD0248FAF7EFFE024831
:10567000FAF7ECFEAC1D0110C81D01102DE9F04F2A
:105680004FF00008AD4EAE4F32683B780132013327
:10569000DFF8C09287B032603B70AA4B1B6804935E
:1056A000002B64D00024049B1A7D002A00F0248281
:1056B000012A00F01E820A2A00F021823978987FA0
:1056C000884200F04981022A997793F8421000F04D
:1056D000A3800B2940F2AF804FF0010B062A049BF8
:1056E00000F0D680597A0B0740F19A80042A40F0E6
:1056F000D081049B3168186AD3F89450091AD3E911
:1057000026C000FB0C50904BA3FB00E0B1EB501FF8
:1057100040F2A6814FF0010A0BF1010B5FFA8BFBFF
:10572000049B5D6F002D00F0C380049BB3F9402003
:1057300002EB4202B1EB420F80F06881049B1A7DBC
:10574000032A60D0092A27D0BBF1000F40F0B080B7
:10575000049B1A7F597F0132D2B29142DD681A77D9
:1057600040F2C5802B46049C0495002B9BD1774DBD
:105770000024296869B10B7D0A2B40F0C38133688E
:105780000A6A9B1AF02B00F2C8800C46C9680029EF
:10579000F1D107B0BDE8F08F3268196A521AF02AC9
:1057A00036D9D3F890500498FFF780FE654B1A68FD
:1057B000049B002C00F07F81934200F0A681DA6800
:1057C000E260BAF1000F40F06881049B1A7DD3E9D2
:1057D00003BA012A00F09C8119460220FEF7C4FF9B
:1057E00089F8008045B16FF00C015046A84799F840
:1057F0000030002B7FF451AF5B46CDF810B0002B8A
:105800007FF451AFB3E73268196A521A282AC8D810
:10581000BBF1000F9CD0C4E705290CD94FF0010B58
:10582000049B5D6F002D00F0198131681A6A4FF0FA
:10583000000A891A79E7049B93F8A1B0BBF1000F25
:1058400000F09180186F002840F06881D96E00291F
:1058500000F0678193F8A2100B293FF63DAF3C4959
:105860008B441BF8015C93F8A010A942C0F02E8174
:10587000049BB3F860502DBB18469A4603F014F908
:1058800038B39AF81420AB46062A049B7FF42AAF5B
:10589000598BC80600F1D580597A0907C0D4049BFA
:1058A0005D6F002DC1D1AA46BBF1000F3FF450AF90
:1058B000049B012AD3F890507FF678AF0A2A7FF430
:1058C00072AF73E71846294602F0D0FA002800F0BC
:1058D0000681049B4FF0000B93F8A12083F8A08071
:1058E000062A9CBF013283F8A1201A7DF6E6D3F880
:1058F0008C2083F81C8089F8008052B11946186901
:10590000904799F80020002A7FF4C7AE00287FF462
:1059100029AF049802F054FE24E72B68002C00F015
:10592000D080994200F00081CF68E7600220FEF746
:105930001BFF394600297FF41EAF2AE704C400206C
:1059400056C40020F4C30020D34D621008C40020C8
:10595000E433011054C400201C46DB680493002B80
:105960007FF4A1AE03E747F6FE75B3F9301088B2B5
:10597000A84202D8013001B21986049BB3F9400055
:1059800088423FF7ABAE18461D4602F037FC2A7D31
:1059900040B1296F00297FF4A1AE049BD96E002984
:1059A0003FF49CAE022A15D0049B47F6FF7193F892
:1059B000422060480C2A28BF0C22B3F93C50805C7E
:1059C000B3F93E2002EBE50282408A42A8BF0A46B4
:1059D000A3F84020049DB5F84810B5F8602028468B
:1059E0008A4228BF0A46698E5208A5F84810490025
:1059F00089B28A4238BF0A46A5F83080A5F84A2005
:105A0000A5F86A8002F0A8FF2A7D67E60594D5E92B
:105A1000004058B1FFF750FA29460420FEF7A4FED3
:105A200054B12546D5E900400028F3D12946042089
:105A3000FEF79AFE002CF4D1DDE90434C3F874803B
:105A40007CE63168186A091A28297FF628AF0BF11D
:105A5000010B4FF0000A5FFA8BFB61E6AA466DE688
:105A6000049B93F8A300344B0CFB0055A3FB0505E6
:105A7000B1EB551F7FF613AF049D284602F0C0FF1F
:105A800000287FF4CDAE95F8A320013285F8A3203D
:105A9000C6E6072A3FF42DAEC2E6049B188B5A6A6D
:105AA000196D0290D88A05920190181D0090184631
:105AB00002F04CFC89E693422DD1DA681F4B1A6044
:105AC0007FE6994233D1CF682F602FE70131C9B209
:105AD000A94283F8A010BFF4CBAE8346FEE5049D37
